:100000000C9491010C94A3010C94A3010C947E1DFB
:100010000C94421A0C94A3010C94A3010C94A30118
:100020000C94A3010C94A3010C94A3010C9401243F
:100030000C94A3010C94A3010C94A3010C94A301B0
:100040000C94B5230C94A3010C9401050C940C02A0
:100050000C94A3010C94A3010C94A3010C94A30190
:100060000C94A3010C94A3013705390572057205A0
:1000700072057205720572057205720572057205C8
:100080003F05410543054505470549054B054D0518
:100090007205510553055505570559055B05720550
:1000A0005D05B309B909BC09BF09C409CC09D40964
:1000B0006F0A6F0A6F0AE109E409ED09F6096F0A90
:1000C0006F0A6F0A6F0A6F0A6F0A020A0C0A180A8F
:1000D000200A230A2C0A350A3B0A6F0A6F0A440ACF
:1000E0004D0A580A9B0C3D183D18A50CB20CBF0CCC
:1000F000CC0C3D18D00C3D18DE0C3D18E80CF20C71
:10010000FC0C3D183D183D180C0D190D260D084A24
:10011000D73B3BCE016E84BCBFFDC12F3D6C74311B
:100120009ABD56833DDA3D00C77F11BED9E4BB4C72
:100130003E916BAAAABE000000803F05A84CCDB23C
:10014000D44EB93836A9020C50B9918688083CA61D
:10015000AAAA2ABE000000803F00244E005B4F5038
:10016000543A005B5645523A312E31662E323031C8
:1001700037303830313A005B544C4F3A005B4739E6
:10018000323A003330003238005B4700204700200D
:100190004D0020530020460020540033382E005BD1
:1001A00047433A47005B484C503A242420242320FC
:1001B000244720244920244E2024783D76616C2059
:1001C000244E783D6C696E6520244A3D6C696E65ED
:1001D0002024534C50202443202458202448207E9F
:1001E0002021203F206374726C2D785D0D0A00532E
:1001F0006C656570696E6700526573746F72696EC5
:1002000067207370696E646C6500526573746F72F9
:10021000696E672064656661756C74730050676D04
:1002200020456E6400436865636B204C696D69749A
:100230007300436865636B20446F6F720044697399
:1002400061626C656400456E61626C656400436167
:100250007574696F6E3A20556E6C6F636B656400E0
:10026000272448277C2724582720746F20756E6C1C
:100270006F636B00526573657420746F20636F6EDB
:1002800074696E7565005B4D53473A000D0A000DA9
:100290000A4772626C20312E3166205B27242720AA
:1002A000666F722068656C705D0D0A005B5052428B
:1002B0003A006572726F723A006F6B0D0A00414C22
:1002C00041524D3A007C413A007C4F763A007C57CF
:1002D000434F3A007C506E3A007C46533A007C42D1
:1002E000663A007C57506F733A007C4D506F733AFA
:1002F00000536C65657000446F6F723A0043686527
:10030000636B00416C61726D00486F6D65004A6FF0
:100310006700486F6C643A0052756E0049646C6502
:10032000000011241FBECFEFD8E0DEBFCDBF17E025
:10033000A0E0B1E001C01D92A136B107E1F70E9433
:10034000A5010C94A23B0C9400000E9452020E9452
:10035000042C0E9477350E947A1A8CE0EFEFF6E0C9
:10036000DF011D928A95E9F778941092DF0680915B
:10037000510784FF03C081E08093DF068FEDE82EF4
:1003800086E0F82E91E1D92EC4E603EF16E0DCE01A
:100390008091DF06F7019D2D11929A95E9F78093E0
:1003A000DF06C093E606C093E706C093E806D801CF
:1003B000ED2F1D92EA95E9F71092F2061092F106E0
:1003C00010920B071092DE061092F0060E940702B0
:1003D0000E94CB040E9492040E946F020E94CD1DD5
:1003E0000E949D1A0E9490210E9499350E94151E1C
:1003F0000E94C5040E94B01B0E94EF05C9CF0E9455
:100400008021892B19F082E00C94A2190895809123
:10041000AB058093AC0508951F920F920FB60F9213
:1004200011248F939F93EF93FF9380916E01E82F98
:10043000F0E0EB5FFE4F90819093C6008F5F8936AE
:1004400009F480E080936E0190910401891305C046
:100450008091C1008F7D8093C100FF91EF919F91AA
:100460008F910F900FBE0F901F901895E09104018F
:1004700091E09E0F993631F490E004C02091F1068E
:1004800024FD0FC020916E019217C1F3F0E0EB5FE5
:10049000FE4F8083909304018091C100806280931D
:1004A000C1000895E0ECF0E08081826080831092CA
:1004B000C50080E18093C400E1ECF0E080818869B0
:1004C000808308959091E006911108C0811102C0C7
:1004D000439802C086FD439A1092EA0608953B9A1B
:1004E000439808954F925F926F927F928F929F925E
:1004F000AF92BF92CF92DF92EF92FF92CF936B01B8
:100500007C01C091E80680904D0790904E07A09026
:100510004F07B09050074090490750904A076090AD
:100520004B0770904C07A3019201C501B4010E94D2
:100530000B3A87FF1AC06C2F70E080E090E00E94B9
:10054000AA382AE037ED43E25CE30E94463A9B0179
:10055000AC01C701B6010E94463A6B017C01A301C0
:1005600092010E940B3A87FD0AC04092EC0650921D
:10057000ED066092EE067092EF068FEF47C0A50180
:100580009401C701B6010E9408381816E4F020E073
:1005900030E0A901C701B6010E940838811109C0E5
:1005A0001092EC061092ED061092EE061092EF06F5
:1005B0002DC08092EC069092ED06A092EE06B092CD
:1005C000EF0681E023C0C092EC06D092ED06E092E7
:1005D000EE06F092EF06A5019401C701B6010E9454
:1005E0002E3720910001309101014091020150917C
:1005F00003010E94463A0E94E53820E030E040E8DE
:100600005FE30E942F370E947C38862FCF91FF90A6
:10061000EF90DF90CF90BF90AF909F908F907F90A2
:100620006F905F904F9008958093B300811104C044
:100630008091B0008F7703C08091B0008068809374
:10064000B00008959091E006911126C081110EC06E
:100650001092EC061092ED061092EE061092EF0644
:100660008091B0008F778093B00014C0803111F476
:100670002D9801C02D9A9091510791FF05C08032AD
:1006800019F440E050E0BA01CB01BA010E947202B5
:100690000E9414031092EA060895CF92DF92EF921F
:1006A000FF921F93CF93DF930E9461268091E10612
:1006B000882309F4F6C00E948021009771F4C0914C
:1006C000F9018091FA01C82BC090FC01D090FD0186
:1006D000E090FE01F090FF0106C0FC01C189C6A4B4
:1006E000D7A4E0A8F1A88091510781FF03C080E260
:1006F0000E948019DC2FD07311E0C0749091E10644
:10070000992309F4CEC08091E0068111CAC090FF00
:10071000C5C08091DF06282F207C09F474C092FDAB
:1007200012C01092E90640E050E0BA0180E00E9459
:10073000220380E00E9462029091E1069D7F946016
:100740009093E106ABC08038E1F486E892E00E9425
:10075000A11B8FEE91E00E94A11B0E944F1D40E063
:1007600050E0BA0180E00E94220380E00E94620211
:100770000E94CB238091E006811193C00E946126E4
:10078000F9CF803419F49F7D9093E1068091E106C2
:1007900083FF84C09091FA019923C1F081FD16C0B6
:1007A0008091510781FF06C08091E30688608093A5
:1007B000E3060CC0B701A6018D2F0E94220341E081
:1007C00060E070E080E890E40E94E41D8091F9010F
:1007D000882371F08091E10681FD0AC08C2F0E9470
:1007E000620241E060E070E080E89FE30E94E41D67
:1007F0009091E10691FD52C090619093E10682E0F4
:100800000E94A2194BC09091E9069923C9F191FF6A
:100810000DC08091FA018823B1F040E050E0BA01A8
:1008200080E00E9422031093E90638C09C70B1F169
:100830008091FA0181110AC08091E90683FF03C00B
:1008400082E00E94A2191092E90628C086E892E090
:100850000E94A11B88EF91E00E94A11B0E944F1DE6
:100860008091510781FF06C08091E30688608093E4
:10087000E306E2CFB701A6018D2F0E942203DCCF51
:100880008091E30683FF0AC0B701A6018D2F0E9465
:1008900022038091E306877F8093E3060E9461260E
:1008A0002DCFDF91CF911F91FF90EF90DF90CF90F0
:1008B00008950E94FF010E944D038091E00681117E
:1008C00008C00E948021892BB1F78091DF06883013
:1008D00091F30895CF93DF9300D000D01F92CDB74E
:1008E000DEB79091DF069230A9F04A835B836C8378
:1008F0007D8389830E9459044A815B816C817D815B
:1009000089810F900F900F900F900F90DF91CF91F2
:100910000C9422030F900F900F900F900F90DF9187
:10092000CF910895CF93DF93239AC0EBD0E083E07B
:10093000888384E08093B100259A20914D073091FF
:100940004E0740914F0750915007609149077091B1
:100950004A0780914B0790914C070E942E379B01CC
:10096000AC0160E070E08EE793E40E940F38609382
:10097000000170930101809302019093030188812B
:100980008F778883DF91CF9108956FEF76E089E0CC
:1009900092E00C94E61980E4E1EFF1E0DF011D92B2
:1009A0008A95E9F765E172E080E00E94B72A81113B
:1009B00003C087E00C94B81B08958091F10684FD74
:1009C0001FC080E10E94A2198091B0008F778093B0
:1009D000B00043989091DF06892F8C7221F48091AA
:1009E000E306867069F0943031F480910B07811131
:1009F00005C086E001C083E00E9492190C94CB23CD
:100A000008951F920F920FB60F9211242F933F93C8
:100A10004F935F936F937F938F939F93AF93BF9306
:100A2000EF93FF93E091C600E13271F028F4E831D2
:100A300079F40E94DD0456C0EF3321F0EE3741F423
:100A400082E003C081E001C088E00E94A2194AC090
:100A5000E7FF37C08E2F90E0FC01E458F109ED313B
:100A6000F10508F03FC0EC5CFF4F0C94803B80E246
:100A7000ECCF8091DF0685FF35C080E4E6CF81E0D2
:100A80000DC082E00BC084E009C088E007C080E1AF
:100A900005C080E203C080E401C080E80E9489199B
:100AA00021C081E00BC082E009C084E007C088E07B
:100AB00005C080E103C080E201C080E40E9480198B
:100AC00011C0A091AB0581E08A0F813809F480E064
:100AD0009091AC05891731F0B0E0A159BE4FEC936D
:100AE0008093AB05FF91EF91BF91AF919F918F9153
:100AF0007F916F915F914F913F912F910F900FBE1A
:100B00000F901F901895EF92FF920F931F93CF9322
:100B1000DF931F92CDB7DEB78C017B018091510727
:100B200085FF26C02091DF06203211F1C8012983FC
:100B30000E94AB1929818823D9F081E08093E206D5
:100B4000283041F00E94DD0482E00E9492190E9448
:100B50004D030EC088E00E94A2190E944D038091AF
:100B6000E006811105C08091DF068111F6CFEACF42
:100B70008091DF06823059F10E944D038091E0069A
:100B8000811125C090916D0280916C02981303C071
:100B90000E94FF01F1CFB701C8010E94AA1E811176
:100BA00016C08091510781FF12C0F701808584FF34
:100BB0000EC0448155816681778180E10F90DF917D
:100BC000CF911F910F91FF90EF900C946A040F90BA
:100BD000DF91CF911F910F91FF90EF9008952F9289
:100BE0003F924F925F926F927F928F929F92AF92BD
:100BF000BF92CF92DF92EF92FF920F931F93CF930A
:100C0000DF93CDB7DEB762970FB6F894DEBF0FBEA5
:100C1000CDBF8091510783FF11C00E94AD1D882375
:100C200069F081E08093DF0686E892E00E94A11BD4
:100C300085E292E00E94A11B0E944F1D8091DF0679
:100C40008178D1F086E892E00E94A11B80E692E0D4
:100C50000E94A11B0E944F1D81E08093DF0610E0DF
:100C600000E0DD24D394E2E0EE2EF5E1CF2EAEE5F8
:100C70007A2EB3E06B2E29C01092DF060E94CC1BA7
:100C8000EECFE92FF0E0E159FE4F80819F5F913870
:100C900009F490E09093AC058F3FE9F08A3021F59C
:100CA0000E944D038091E006811156C4E12FF0E0CF
:100CB000E257F94F1082202F2170F22E00FF18C04A
:100CC0008BE00E94B81B10E000E09091AC05809191
:100CD000AB058913D6CF0E94FF010E944D0380917E
:100CE000E006882391F338C48D3009F00DC4D8CFC5
:100CF00080918E06882309F404C4843209F0F9C374
:100D0000D98A80918F06833409F134F4882361F005
:100D1000843209F006C11AC08A3459F08835B1F01E
:100D2000873409F0FEC012C085EA91E00E94A11B41
:100D3000DEC38091DF068F7D09F0C9C380919006E4
:100D40008D3309F0CCC30E94C50AC4C390919006AC
:100D50009111C5C3833409F4B2C01CF4843239F054
:100D6000C6C3873469F0883509F4C9C0C0C380910F
:100D7000DF068871F82E09F0AAC30E943D1CB7C394
:100D80008FE991E00E94A11B8091F1018C3838F02D
:100D90008BE991E00E94A11B8091F1018A580E9489
:100DA0007B1B8CE891E00E94A11B8091F7018A5C7B
:100DB0000E947B1B8CE891E00E94A11B8091F501B1
:100DC0008F5E0E947B1B8CE891E00E94A11B8091AA
:100DD000F3019C2D981B892F0E947B1B8CE891E0CE
:100DE0000E94A11B8091F401865A0E947B1B8CE813
:100DF00091E00E94A11B8091F201E72DE81B8E2F4C
:100E00000E947B1B8091F801882399F08FE891E084
:100E10000E94A11B8091F801833029F08E3139F0B6
:100E2000823039F404C080E30E94360202C00E947E
:100E30007B1B8FE891E00E94A11B8091FA01803119
:100E400031F0803231F0811107C085E303C083E3C4
:100E500001C084E30E9436028FE891E00E94A11B4A
:100E60008091F901882311F088E301C089E30E9491
:100E7000360288E991E00E94A11B809104020E9441
:100E80007B1B85E991E00E94A11B6091000270919B
:100E9000010280910202909103020E94401B82E9AC
:100EA00091E00E94A11B6091FC017091FD01809175
:100EB000FE019091FF0140E00E94A21A0EC08091B5
:100EC000DF06823069F40E94DD0486E892E00E9429
:100ED000A11B8DE392E00E94A11B0E944F1D07C33E
:100EE0008111F5C2E092DF0686E892E00E94A11B24
:100EF00086E492E00E94A11B0E944F1D3BC080919E
:100F0000DF06813009F0F3C286E892E00E94A11B5F
:100F10008EE492E00E94A11B0E944F1D1092DF06FA
:100F2000E6C29091DF06923008F0D1C2893409F40C
:100F3000A0C034F4833271F0883409F45AC041C13E
:100F4000823509F4E8C0833509F481C08E3409F094
:100F500038C111C1809190068111C1C210E0BE015B
:100F60006F5F7F4F812F0E94B72A811105C087E0F4
:100F70000E94B81BF12CBBC289E891E00E94A11B22
:100F8000163029F0173041F483E891E002C086E87A
:100F900091E00E94A11B04C086E3810F0E947B1B8D
:100FA0008AE30E943602CE0101960E945E1B0E94D7
:100FB0004F1D1F5F183099F68DE791E00E94A11B2D
:100FC00081E292E00E945E1B0E944F1D87E791E044
:100FD0000E94A11B60912D0270912E0280912F0220
:100FE000909130020E944F1B0E944F1D0E94541D81
:100FF0007EC28091510784FF67C2F4E0F093DF0660
:101000008091900681116BC20E94C21D84E00E94F3
:10101000A12183E00E94A1210E944D038091E0065E
:10102000811106C00E94C5040E94151E0E94CD1D9C
:101030008091E00681115BC21092DF060E94CB23F3
:1010400080919006811153C20E94CC1B93CF809156
:1010500090068C3409F043C280919106803509F0E6
:101060003EC28091920681113AC280E80E94A21984
:101070003EC2E98A80919006811130C040E550E07F
:101080006EEA73E08EE896E00E94E736892B51F411
:1010900010928E0640E550E06EE876E08EEA93E02E
:1010A0000E94A73683E691E00E94A11B0E9451197D
:1010B0000E944F1D8DE591E00E94A11B86E50E94D4
:1010C00036028CE20E9436028FE00E947B1B8CE28B
:1010D0000E94360280E80E947B1BFFCE698A8D3316
:1010E00009F0FDC183E0282F30E0F901E257F94F04
:1010F0009081D901A557B94F9C938F5F9081911131
:10110000F2CF898B40E550E06EE876E08EEA93E01E
:101110000E94A736ECC180919006833509F0DFC1AB
:1011200080919106843509F0DAC1809192068D3361
:1011300009F0D5C1809194068111D1C180919306A7
:10114000843239F08A3239F0833209F0C8C182E042
:1011500003C081E001C08FEF0E94D82A86E892E0A8
:101160000E94A11B8AE092E00E94A11B0E944F1DD9
:101170000E94DD04BCC1E98A8091900681111DC0E6
:1011800010E0812F0E945E19811104C087E00E9447
:10119000B81B0EC08AE591E00E94A11B812F0E941E
:1011A0007B1B8DE30E9436020E9451190E94B41BE2
:1011B000113009F49CC111E0E4CF911188C111E014
:1011C00001C010E0BE01635F7F4FCE0141960E94D7
:1011D000CC35811103C072E0F72E89C1E98981E025
:1011E0008E0F898BF0E0E257F94F90819D3309F023
:1011F00076C1112379F1482F50E0282F30E0D90132
:10120000A257B94F9C91241B350BF901E257F94FB6
:1012100090838F5F9C919111F0CF898B0E94C50ABA
:10122000811158C16D857E858F8598890E94143BF8
:101230000E947C386A8B0E9459046A8921E5629F6A
:10124000C001112440E550E06EE876E09D5F0E9409
:10125000A73690CEBE016F5F7F4FCE0141960E94B0
:10126000CC35882309F4B7CFE989F0E0E257F94F8C
:101270008081811134C12D843E844F84588820E0C0
:1012800030E04FE753E4C201B1010E940B3A181657
:101290000CF425C189809A80AB80BC80C201B10169
:1012A0000E947C38162F20E030E0A901C501B4016E
:1012B0000E94083887FD10C1143608F443C0ECE9D9
:1012C000E10F80E0E330A8F52E2F30E0220F331F2E
:1012D000220F331F823079F0F901833019F1813008
:1012E00019F0E45FF84F02C0E85EF84F8082918207
:1012F000A282B382E6C089010C5D184F20E030E085
:1013000040E752E4C501B4010E94463A20E030E0D3
:1013100040E752E40E94463AF80160837183828379
:101320009383CFC0E05DF84FB7FAB094B7F8B094AC
:10133000DDCF8F5FEA3008F4D2C0843009F4CFC02B
:10134000EA50C0CFC501B4010E94143B0E947C3812
:10135000812F90E08132910508F0C1C0FC01EF5A65
:10136000FF4F0C94803B633008F4BCC060933C0793
:10137000A8C060933F07A5C060933D0702C060937B
:101380003E070E949B239DC080915107662311F068
:10139000846095C08B7F93C080915107662311F0C4
:1013A00080648DC08F7B8BC080915107662311F0C4
:1013B000806801C08F778093510780E00E948B1A6C
:1013C00080C0609340077DC08092410790924207A1
:1013D000A0924307B092440774C080924507909250
:1013E0004607A0924707B09248076BC0809151070B
:1013F000662311F0816001C08E7F809351070E94A7
:101400002E1A5FC080915107662321F084FF6DC0C2
:10141000806255C08F7D53C080915107662311F0C3
:10142000886001C0877F809351070E94CD1D49C00D
:1014300080915107662311F0806141C08F7C3FC0CD
:10144000609352073EC08092530790925407A09237
:101450005507B092560735C08092570790925807AB
:10146000A0925907B0925A072CC070E070935C07A5
:1014700060935B0726C080925D0790925E07A09202
:101480005F07B09260071DC08092490790924A079B
:10149000A0924B07B0924C0708C080924D079092E3
:1014A0004E07A0924F07B09250070E94920409C0C5
:1014B00080915107662311F0826001C08D7F809377
:1014C00051070E948E2A13C055E0F52E10C048E047
:1014D000F42E0DC0F82E0BC034E0F32E08C023E02C
:1014E000F22E05C096E0F92E02C08AE0F82E8F2D6C
:1014F00008C08091DF06817211F089E0E2CB0E9482
:10150000C50A0E94C41BDFCB002329F0893209F0F1
:10151000DCCB0D7FDACB813208F4D7CB8F3209F4E4
:10152000D4CB883299F08B3399F01F3498F4212F63
:1015300030E0E1E0E10F9FE9980FD901A257B94FE0
:101540009A3108F480528C931E2FBFCB02E0BDCBA2
:1015500004E0BBCB01E0B9CB62960FB6F894DEBFD6
:101560000FBECDBFDF91CF911F910F91FF90EF90F4
:10157000DF90CF90BF90AF909F908F907F906F90B3
:101580005F904F903F902F9008952F923F924F92EF
:101590005F926F927F928F929F92AF92BF92CF9203
:1015A000DF92EF92FF920F931F93CF93DF93CDB70C
:1015B000DEB7CA54D1090FB6F894DEBF0FBECDBF57
:1015C0008AE3E1E3F2E0DF011D928A95E9F78BE01F
:1015D000E1EFF1E0A2E3B2E001900D928A95E1F72C
:1015E00080918E06843211F00C94611881E0809312
:1015F00032021092330283E08A8FB1E0BBA3212C28
:10160000312C18AA1FA6C12C1B8E1F8EDD24D3944B
:101610006AE0A62EB12C0EE571E6872E73E0972EB8
:101620008A8DE82FF0E0E257F94FE080EE2009F4D0
:101630003FC29FEB9E0D9A3110F00C942D188F5FD6
:101640008A8FBE016A5E7F4FCE014A960E94CC35DA
:10165000882311F40C942F184E885F88688C798C3D
:10166000C301B2010E94143B0E947C38162F70E027
:1016700080E090E00E94AA389B01AC01C301B20156
:101680000E942E3720E030E048EC52E40E94463AB7
:101690000E94A93A0E947C38CB01E7E4EE1629F0BB
:1016A000FDE4EF1609F4EAC034C1183209F4C5C0EC
:1016B00020F5143168F4113108F08AC0143009F4AF
:1016C00052C008F464C01A3009F445C00C943D18A7
:1016D0001C3109F440C050F4163110F00C943D1840
:1016E00025E1211B2093340226E0ACC01E3199F184
:1016F000163209F44CC00C943D181D3309F497C000
:10170000A8F4153381F140F41B3209F47AC0113387
:1017100009F477C00C943D181C3310F00C943D185C
:101720006AEC610F6093380229E08CC01C3538F4F4
:101730001A3508F053C0103581F10C943D181C3552
:1017400051F01F3510F00C943D18202F211B2093D1
:10175000330225E077C0009731F42F8D21110C94CE
:10176000311831E03F8F10933102212F2D7F2C3122
:1017700019F01C3509F063C0009721F00A9711F0A9
:101780000C943D18610F6093310220E060C06F8DB2
:1017900061110C943118A2E0AF8F1093320216320F
:1017A00009F04FC08431910559F08E31910541F017
:1017B0008832910529F08233910511F00C943D187F
:1017C000B5010E944A3B66576093320221E03FC058
:1017D0006FEE610F6093360222E034C0009731F45F
:1017E00066EA610F6093350223E031C06A3071050B
:1017F00011F00C943D181A3511F40C943D1824E0A6
:1018000026C0BF8DB1110C943118113331F41092F0
:10181000370228E0E3E0EF8F1AC00A9711F00C942A
:101820003D18D092370228E0F3E0FF8F10C0892BDB
:1018300011F00C943D182AE00AC027E003C020E014
:1018400001C021E0892B19F087E10C94651881E033
:1018500090E002C0880F991F2A95E2F72FA538A9BA
:1018600028233923232B19F085E10C9465182FA523
:1018700038A9282B392B38AB2FA7D2CE892B21F7AB
:10188000163018F4133058F016C0183010F40C94B9
:101890003D181A30F0F01E3159F00C943D18112308
:1018A00019F0113001F104C033E0309339021BC04C
:1018B0001093390218C0143021F0153031F080E156
:1018C00001C080E280933B0202C010923B028CE098
:1018D0000BC0193021F080E480933A0202C01092CC
:1018E0003A028DE001C08BE0A1E0B0E002C0AA0F97
:1018F000BB1F8A95E2F72FA538A92A233B23232B68
:1019000009F0B2CFEFA5F8A9EA2BFB2BF8ABEFA7B4
:1019100087CE8E2D992787FD9095A92FB92FFC0191
:10192000E654F109E531F10510F00C943D18EE583C
:10193000FF4F0C94803B40923D0250923E026092D9
:101940003F027092400280E08DC04092410250926E
:1019500042026092430270924402FC2DF160CF2E4D
:1019600081E080C040924502509246026092470258
:10197000709248022C2D2260C22E82E073C04092E9
:10198000490250924A0260924B0270924C023C2DE6
:101990003460C32E83E066C010934D0284E062C0C1
:1019A000C301B2010E94773860934E0270934F02D8
:1019B000809350029093510285E054C040925202AD
:1019C00050925302609254027092550286E04AC0CF
:1019D00040925602509257026092580270925902F9
:1019E00087E040C040925A0250925B0260925C02D3
:1019F00070925D0288E036C020E030E04FE753E4AB
:101A0000C301B2010E940B3A181614F40C94331857
:101A100010935E0289E026C040925F0250926002FD
:101A200060926102709262026B8D61606B8F8AE0DE
:101A300019C04092630250926402609265027092F3
:101A400066028B8D82608B8F8BE00CC040926702A8
:101A5000509268026092690270926A029B8D946053
:101A60009B8F8CE0EE24E394F12C082E02C0EE0C48
:101A7000FF1C0A94E2F7970122213321232B11F056
:101A80000C943518D40102C0B595A7958A95E2F754
:101A9000A0FF0BC020E030E0A901C301B2010E9409
:101AA000083887FF02C00C9437182E283F28B8CD7D
:101AB000BB8DBB2329F0EF8DE11102C0F2E0FF8F57
:101AC00025FE0FC080914E0290914F02A0915002CE
:101AD000B091510281389649A849B10514F00C948F
:101AE00039183BA1332301F120FC02C00C944318A8
:101AF00080913402813009F03FC023E333E34BECA3
:101B000051E460913D0270913E0280913F029091BC
:101B100040020E94463A60933D0270933E028093D9
:101B20003F029093400228C080913302813071F4CB
:101B30006F8D623009F5809132028035E9F088239B
:101B4000D9F020FC02C00C94431816C08091F20119
:101B5000811112C020FCCCCF809100029091010233
:101B6000A0910202B091030280933D0290933E0245
:101B7000A0933F02B093400230FC10C08091FC0162
:101B80009091FD01A091FE01B091FF0180935A0256
:101B900090935B02A0935C02B0935D02809131024E
:101BA000843039F426FC03C08CE10C946518E89469
:101BB00026F880913602882369F0813029F48BAFB2
:101BC0001DAA92E09BAB0BC01BAEA2E0ADABB1E097
:101BD000BBAB05C0E2E0EBAFF1E0FDAB1BAA80912F
:101BE0003402813021F02F8D2330A9F52BC04FE531
:101BF000E42E42E0F42E00E010E03B8DA32EB12C49
:101C0000C501002E02C0959587950A94E2F780FFE2
:101C100010C023E333E34BEC51E4D7016D917D9188
:101C20008D919C910E94463AF70160837183828373
:101C300093830F5F1F4FF4E0EF0EF11C033011058B
:101C4000F9F6D1CF80913702813029F42B8D2430E1
:101C500011F00C943B188CE0E5E1F2E0DE01119606
:101C600001900D928A95E1F78FA598A991FD09C081
:101C7000909131029FA39A30C9F09C3509F4AFC00E
:101C800010C180913802873018F08DE10C946518EE
:101C90009091F701981761F3BE016F5F7F4F0E942B
:101CA000B72A882311F40C945118E2CFAB8DA111FF
:101CB00003C08AE10C946518C10180759927892BAE
:101CC00009F472CF609152027091530280915402D4
:101CD000909155020E94143B0E947C386730A8F610
:101CE00080914D02843141F0823011F00C943D1806
:101CF00027FE02C00C943D18BFEA2B22662319F080
:101D000061506DA703C0E0913802EDA761E472E075
:101D10008DA50E94B72A882311F40C945118D090F5
:101D20004D0240902D0250902E0260902F02709034
:101D3000300201E412E039E0A32E32E0B32EE12CB0
:101D4000F12CFB8D8F2E912CC4010E2C02C0959589
:101D500087950A94E2F780FF34C024E1D21228C0AC
:101D6000D50158962D913D914D915C915B976D9168
:101D70007D918D919C910E942E37F801268D378D93
:101D800040A151A10E942E37D8016D937D938D9370
:101D90009C931397B2E0EB16F10499F4A30192011E
:101DA0000E942E37F801608371838283938309C078
:101DB000F801868D978DA0A1B1A180839183A28324
:101DC000B383FFEFEF1AFF0A0C5F1F4F24E0A20E50
:101DD000B11C33E0E316F10409F0B6CF2FC16B8DCF
:101DE000662309F466CF40902D0250902E02609039
:101DF0002F02709030020FE512E0A12CB12CE12CE3
:101E0000F12C862E912CF501EF50FE4FC4010E2CC3
:101E100002C0959587950A94E2F780FF2BC0A1E058
:101E2000B0E0AC0FBD1FAA0DBB1D2D913D914D9192
:101E30005C91608D718D828D938D0E942E37D801BB
:101E40002D913D914D915C910E942E37F801608358
:101E5000718382839383F2E0EF16F104A1F4A3016E
:101E600092010E942E37D8016D937D938D939C93A0
:101E7000139709C080A991A9A2A9B3A9F8018083E9
:101E80009183A283B383FFEFEF1AFF0A24E0A20E2F
:101E9000B11C0C5F1F4F33E0E316F10409F0B3CF20
:101EA000CCC06F8D633071F48FA18E3109F48BC07B
:101EB000853309F4BCC08C3109F0BFC061E472E025
:101EC00086E084C09B8D992379F3D09035024090B1
:101ED0002D0250902E0260902F027090300229E067
:101EE000A22E22E0B22E0FE512E0DE0111964D0186
:101EF000E12CF12CE92FF0E0FEA7EDA78DA59EA522
:101F00000E2C02C0959587950A94E2F780FD0BC0D0
:101F1000F50180819181A281B381F8018083918351
:101F2000A283B3833FC0FFA1F533E1F1D11029C0F3
:101F3000D50158962D913D914D915C915B97F4019F
:101F400060817181828193810E942F37D8012D9108
:101F50003D914D915C910E942F37F8016083718310
:101F600082839383F2E0EF16F104E1F4A30192017E
:101F70000E942F37D8016D937D938D939C93139777
:101F800011C0F5012081318142815381D8016D91C9
:101F90007D918D919C910E942F37F8016083718310
:101FA00082839383FFEFEF1AFF0A24E0A20EB11C95
:101FB0000C5F1F4F34E0830E911C63E0E616F104C2
:101FC00009F09CCF71CF61E472E087E00E94B72AEC
:101FD000882311F40C9451188B8D811103C01DA618
:101FE0001F8E2CC020E030E080E090E0AB8D4A2FC7
:101FF00050E0BA01082E02C0759567950A94E2F781
:1020000060FD0EC0F901EF50FE4F808C918CA28CC8
:10201000B38CF901EF5CFD4F808A918AA28AB38A62
:1020200001962C5F3F4F8330910519F706C08091D0
:102030003202823010F00C943F181DA6B09132028B
:10204000BFA3B03529F4EB8DE1110C94411874C293
:10205000FF8DF23009F070C22FA1211104C03B8D19
:1020600031116AC22BC020E030E0A90160913D022D
:1020700070913E0280913F02909140020E94083888
:10208000882311F40C9443186FA16C3809F43EC2F4
:1020900040F46230A9F06330B1F0613009F04CC215
:1020A0000AC08FA18E3809F431C208F42CC28F38CF
:1020B00009F429C241C29B8D91113EC21F8E3CC2C0
:1020C000ABA1A460ABA3BB8DBB2309F4F2CDEBA9FC
:1020D0000E2F10E03DA9232F30E03AA729A781E079
:1020E00090E07C010DA802C0EE0CFF1C0A94E2F700
:1020F00002C0880F991FEA95E2F7E82AF92A8B2F88
:1021000090E08E219F21892B09F4BFC7F801EE0FC3
:10211000FF1FEE0FFF1FEF5CFD4FD801AA0FBB1F83
:10212000AA0FBB1FA75FBD4F2D913D914D915C91B3
:1021300066A577A580A991A90E942E374B015C0165
:10214000E9A5FAA5EE0FFF1FEE0FFF1FEF5CFD4F95
:10215000A9A5BAA5AA0FBB1FAA0FBB1FA75FBD4F9A
:102160002D913D914D915C9166A577A580A991A98E
:102170000E942E376FAB78AF89AF9AAF310160E81C
:102180006622772427FEEFC0E89427F84CE050E061
:102190006FE572E089E092E00E94953B892B11F493
:1021A00081E293C7809134028130B1F423E333E3B9
:1021B0004BEC51E4609156027091570280915802A5
:1021C000909159020E94463A6093560270935702CA
:1021D00080935802909359024090560250905702B3
:1021E0006090580270905902A5019401C501B40194
:1021F0000E94463A23966CAF7DAF8EAF9FAF239778
:102200002FA938AD49AD5AADCA01B9010E94463A6D
:1022100027966CAF7DAF8EAF9FAF279720E030E061
:1022200040E850E4C301B2010E94463AA301920182
:102230000E94463A23962CAD3DAD4EAD5FAD23973F
:102240000E942E3727962CAD3DAD4EAD5FAD279742
:102250000E942E376B017C0120E030E0A9010E9432
:10226000083887FD14C7C701B6010E94D33A6B0135
:102270007C0127962CAD3DAD4EAD5FAD27972396E3
:102280006CAD7DAD8EAD9FAD23970E942F370E9420
:10229000D33A9B01AC01C701B60190580E940F3898
:1022A0006B017C018FA1833021F4F7FAF094F7F8E9
:1022B000F09420E030E0A901C301B2010E94083887
:1022C00087FF0FC0F7FAF094F7F8F094D301C2013A
:1022D000B0588093560290935702A0935802B0933F
:1022E0005902000F111F000F111F0F5B1D4FA70197
:1022F00096016FA978AD89AD9AAD0E94463A9B01CF
:10230000AC01C501B4010E942E3720E030E040E06E
:102310005FE30E94463AD8016D937D938D939C9321
:10232000139709A51AA5000F111F000F111F0F5BAE
:102330001D4FA7019601C501B4010E94463A9B01B9
:10234000AC016FA978AD89AD9AAD0E942F3720E01E
:1023500030E040E05FE30E94463AF8016083718319
:1023600082839383E9C0D12CEC20FD20EF2809F46F
:1023700090C6F1EF2F2280913402813009F47CC0A5
:10238000F801EE0FFF1FEE0FFF1FEF5BFD4FC08048
:10239000D180E280F380A7019601C501B4010E94BB
:1023A0002E372B013C01E9A5FAA5EE0FFF1FEE0F1A
:1023B000FF1FEF5BFD4F80819181A281B38189A7CF
:1023C0009AA7ABA7BCA79C01AD016FA978AD89AD59
:1023D0009AAD0E942E374B015C01A3019201C3010B
:1023E000B2010E94463A2B013C01A5019401C501AE
:1023F000B4010E94463A9B01AC01C301B2010E94A4
:102400002F370E94D33A4B015C01A7019601C70107
:10241000B6010E94463A6B017C0129A53AA54BA55D
:102420005CA5CA01B9010E94463A9B01AC01C701F3
:10243000B6010E942F370E94D33A6B017C01609352
:1024400056027093570280935802909359029B0151
:10245000AC01C501B4010E942E374B015C01E89428
:10246000B7F82AE037ED43EA5BE3C501B4010E9407
:102470000B3A18165CF160C091E3E92E92E0F92E58
:10248000C601062C02C0959587950A94E2F780FF55
:1024900012C023E333E34BEC51E4D70150966D9126
:1024A0007D918D919C9153970E94463AF701608BE4
:1024B000718B828B938BFFEF6F1A7F0A24E0E20E01
:1024C000F11C33E063167104D9F65ACF20E030E0F6
:1024D00040E05FE3C501B4010E940B3A18160CF40A
:1024E0005FCE2FE632E143E85AE3C701B6010E940E
:1024F000463A9B01AC01C501B4010E940B3A181683
:102500000CF44ECE19C06BA160616BA38FA18E58E5
:10251000823018F48BA188608BA39B8D992309F4DA
:10252000C8CB4CE050E06FE572E089E092E00E9499
:10253000953B892B09F434CE2BA12170ABA1C101AD
:10254000A0FF02C08E7D02C08E7D9C7FBF8DB11129
:10255000937E892B09F09FC58E01035F1F4F89E091
:10256000F80111928A95E9F7222309F44BC08FA54F
:1025700098A9867B892B09F090C58091310285331B
:1025800011F081118AC58091FC019091FD01A0910B
:10259000FE01B091FF01898B9A8BAB8BBC8B909124
:1025A000FA018091F901892B40913D0250913E0240
:1025B00060913F02709140024D875E876F87788BF4
:1025C00084608D8B8091510785FF06C08FE592E076
:1025D0000E94AB19811163C5B8018FE592E00E949A
:1025E00083058091DF0681115EC50E948021892BC1
:1025F00009F459C580E28093DF060E941D2C0E94D9
:10260000492651C580915107F090FA0181FF26C0FB
:102610009FA19150933018F0FBA1F064FBA32B8D88
:10262000222339F03F8D323021F46BA160686BA317
:1026300015C080E1F81212C09091F10191508BA168
:102640008074933030F4882349F09BA190629BA35F
:1026500005C0811103C0ABA1A062ABA380914E0263
:1026600090914F02A0915002B091510280930502C7
:1026700090930602A0930702B09308028091330260
:102680008093F201882311F088E08D8B80913D02C8
:1026900090913E02A0913F02B091400280930002CF
:1026A00090930102A0930202B09303028D879E874C
:1026B000AF87B88B80905A0290905B02A0905C022A
:1026C000B0905D02A50194016091FC017091FD0143
:1026D0008091FE019091FF010E940838BBA1B07467
:1026E000EB2E811103C0EBA1E5FF20C0FF2071F0AC
:1026F000FBA1F7FD0BC0EE2021F040E050E0BA0155
:1027000002C0B501A4018F2D0E946A0480915A0273
:1027100090915B02A0915C02B0915D028093FC01FC
:102720009093FD01A093FE01B093FF01E1100CC056
:102730008091FC019091FD01A091FE01B091FF01FB
:10274000898B9A8BAB8BBC8B80915E028093040249
:1027500080913B029091FA01981751F049895A896A
:102760006B897C890E946A0480913B028093FA0104
:102770009D898091FA01892B8D8B80913A029091ED
:10278000F9019817D1F09091DF06923051F02B9615
:102790008FAF2B970E9459042B968FAD2B970E94D9
:1027A000620280913A02811103C01092F90105C0C2
:1027B0009091F901892B8093F9019D898091F9010C
:1027C000892B8D8B80913102843049F560915202C2
:1027D0007091530280915402909155022091DF062E
:1027E0002230E9F028966FAF289729967FAF299776
:1027F0002B968FAF2B972A969FAF2A970E9459044A
:1028000040E028966FAD289729967FAD29972B96A3
:102810008FAD2B972A969FAD2A970E94E41D809139
:1028200036028093F501809134028093F3012F8D5D
:10283000233071F5809137028093F601811108C031
:1028400010926702109268021092690210926A0256
:10285000C0906702D0906802E0906902F0906A022E
:10286000A701960160912D0270912E0280912F0296
:10287000909130020E940838882351F0C0922D02B6
:10288000D0922E02E0922F02F09230020E942E1A75
:10289000809138029091F701981769F08093F701C1
:1028A0008CE0FE013196A5E1B2E001900D928A958F
:1028B000E1F70E942E1A809135028093F4018091F5
:1028C00031028632F1F138F48C3109F18E31F9F0B0
:1028D0008A3069F04FC08C35D1F1863609F441C099
:1028E000883209F047C069E072E087E02DC061E4FA
:1028F00072E08DA50E949B2A8091F7013DA583136C
:1029000039C08CE0E1E4F2E0A5E1B2E025C08D89B8
:1029100081608D8B6F8D662329F0B8018FE592E081
:102920000E948305B80181E492E00E9483058CE057
:10293000E1E4F2E0A9E0B2E001900D928A95E1F7BE
:1029400019C069E072E086E00E949B2A13C08CE007
:10295000EFE5F2E0A1E2B2E001900D928A95E1F795
:1029600007C08CE0E1E2F2E0DF011D928A95E9F711
:102970000E942E1A809132028093F101803509F471
:102980001EC3BF8DB23009F01AC3813021F4BE01DD
:10299000635F7F4F06C0811109C08D8981608D8B77
:1029A000B8018FE592E00E94830500C38250823017
:1029B00008F095C28091560290915702A09158025A
:1029C000B09159028F8F98A3A9A3BAA3ABA994E0A1
:1029D000A99F70011124F701E75FFD4FF8A7EFA34E
:1029E00097012F5B3D4F3EA72DA7D9014D905D90DC
:1029F0006D907C902081318142815381C301B2016D
:102A00000E942F376FA778AB89AB9AABEDA9B4E0E2
:102A1000EB9F800111249801275F3D4F3CAB2BAB0E
:102A2000C8018F5B9D4F9EAB8DABDC018D909D905F
:102A3000AD90BC90F9012081318142815381C50163
:102A4000B4010E942F376FAB78AF89AF9AAF77FA96
:102A5000709477F87094D501C401B0588B8F9C8F17
:102A6000AD8FBE8FF701E15AFD4F2FA538A949A9B7
:102A70005AA960817181828193810E942E376B01F6
:102A80007C01F801E15AFD4F2FA938AD49AD5AAD8F
:102A900060817181828193810E942E374B015C019C
:102AA000A7019601C301B2010E94463A69A77AA71D
:102AB0008BA79CA7A50194016B8D7C8D8D8D9E8D20
:102AC0000E94463A9B01AC0169A57AA58BA59CA5FD
:102AD0000E942F3769A77AA78BA79CA7A50194010D
:102AE000C301B2010E94463A4B015C01A701960165
:102AF0006B8D7C8D8D8D9E8D0E94463A9B01AC0125
:102B0000C501B4010E942E3729A53AA54BA55CA5A5
:102B10000E94A2376B017C019BA192FF13C02DEB99
:102B200037E346E055EBC701B6010E940B3A87FD3B
:102B30001DC02BED3FE049EC50E4C701B6010E94F7
:102B40002E3712C02DEB37E346E055E3C701B6013F
:102B50000E940838181654F02BED3FE049EC50E481
:102B6000C701B6010E942F376B017C018090450799
:102B700090904607A0904707B09048072F8D38A146
:102B800049A15AA1CA01B9010E942F37A501940198
:102B90000E942E379B01AC01C501B4010E94463A48
:102BA0000E94D33A4B015C0120E030E040E05FE35B
:102BB000C701B6010E94463A2F8D38A149A15AA1FA
:102BC0000E94463A9F77A50194010E940F380E9407
:102BD000E5380E947C387AA769A7DB01AB2B09F4A2
:102BE000D6CE1D894B01A12CB12C13FF12C0C501FB
:102BF000B4010E94A8389B01AC016D857E858F854C
:102C000098890E94463A6D877E878F87988B177FB9
:102C10001D8BC501B4010E94A8384B015C019B01CA
:102C2000AC01C701B6010E940F386BA37CA38DA332
:102C30009EA3EBADB4E0EB9FC00111248C01075FB4
:102C40001D4FFC01E15AFD4FD8012D913D914D9151
:102C50005C9160817181828193810E942E37A501F0
:102C600094010E940F3827966CAF7DAF8EAF9FAF57
:102C700027972BA13CA14DA15EA1CA01B9010E94D9
:102C8000463A9B01AC0160E070E080E090E40E9475
:102C90002E376B017C012BEA3AEA4AE25EE36BA134
:102CA0007CA18DA19EA10E94463A4B015C0120E0CF
:102CB00030E040E850E4C701B6010E942F379B0185
:102CC000AC01C501B4010E94463A6BAF7CAF8DAF39
:102CD0009EAF20E030E040E05FE3C701B6010E9414
:102CE000463A23966CAF7DAF8EAF9FAF23971F8E72
:102CF00022242394312CE9A5FAA52E163F0609F4C7
:102D000046CEBF8DBC3008F044C023962CAD3DADFF
:102D10004EAD5FAD23976B8D7C8D8D8D9E8D0E940A
:102D2000463A6B017C012BAD3CAD4DAD5EADC301B0
:102D3000B2010E94463AA70196010E942F377B01FB
:102D40006C0123962CAD3DAD4EAD5FAD2397C30115
:102D5000B2010E94463A4B015C012BAD3CAD4DAD3A
:102D60005EAD6B8D7C8D8D8D9E8D0E94463A9B0154
:102D7000AC01C501B4010E942E372B013C01EF8D3F
:102D8000EF5FEF8F470156018B8E9C8EAD8EBE8E0E
:102D900065C0B10180E090E00E94A8382BA13CA161
:102DA0004DA15EA10E94463A6B017C010E940C3845
:102DB0006B8F7C8F8D8F9E8FC701B6010E94C93AA1
:102DC0004B015C01ADA5BEA5CD90DD90ED90FC90D2
:102DD000F7FAF094F7F8F094ADA9BEA98D919D9102
:102DE0000D90BC91A02D8F8F98A3A9A3BAA32B8D72
:102DF0003C8D4D8D5E8DC701B6010E94463A2B0178
:102E00003C01A50194016F8D78A189A19AA10E942E
:102E1000463A9B01AC01C301B2010E942F372B013E
:102E20003C01A5019401C701B6010E94463A6B011D
:102E30007C012B8D3C8D4D8D5E8D6F8D78A189A190
:102E40009AA10E94463A9B01AC01C701B6010E94BB
:102E50002E376B8F7C8F8D8F9E8F1F8EA3019201DB
:102E60006FA578A989A99AA90E942F37EFA1F8A583
:102E700060837183828393832B8D3C8D4D8D5E8D1A
:102E80006FA978AD89AD9AAD0E942F37ABA9BCA9C7
:102E90006D937D938D939C93139727962CAD3DADA9
:102EA0004EAD5FAD2797F80160817181828193817A
:102EB0000E942F37D8016D937D938D939C93139728
:102EC000BE01635F7F4F89E092E00E94830580919D
:102ED000E00681116BC0BFEF2B1A3B0A0CCF8D8926
:102EE00084608D8B8091DF06823009F45FC00E9480
:102EF00059048091E006811162C0FBA1F071FF2EA0
:102F00001092E4062BA123FB882780F90E948B1ADC
:102F100086B180729091F001891749F084E00E9497
:102F200092190E944D0380E00E948B1A48C0B8019C
:102F30008FE592E00E94830581E08093F20682E0B3
:102F40000E94A2190E944D038091E006811137C0B2
:102F50008091DF068111F6CF8091F206813081F4F5
:102F6000FF2051F08CE0EFEFF6E0A3EFB6E0019028
:102F70000D928A95E1F707C085E00E94921903C07F
:102F800081E08093E4061092F20680E00E948B1AA2
:102F90000E944D030E9499350E9490210E94151EA7
:102FA0000E94541D8091E406811188C08CE0EFE5F9
:102FB000F2E0A9E0B2E001900D928A95E1F78091EC
:102FC00039028093F801882309F47FC00E945904D4
:102FD0008091F8019091DF06833041F49230D1F175
:102FE00088E00E94A2190E944D0334C081E08093C2
:102FF000F1011092F5011092F4011092F201109279
:10300000F7011092FA011092F90184E68093E60626
:103010008093E7068093E806923091F065E172E0D4
:1030200080E00E94B72A8823E1F10E942E1A40E036
:1030300050E0BA0180E00E94220380E00E94620218
:1030400086E892E00E94A11B8DE192E00E94A11B04
:103050000E944F1D1092F8012FC081E036C082E01F
:1030600034C088E132C086E230C089E12EC084E0FD
:103070002CC08BE12AC085E228C084E126C08EE105
:1030800024C08FE122C086E120C080E21EC082E21F
:103090001CC083E21AC084E218C080E116C08FE031
:1030A00014C087E012C08CE0EFE5F2E0A9E0B2E0E6
:1030B00001900D928A95E1F780E007C00E94C50457
:1030C0007ECF1A8E1BA20C94FF0AC65BDF4F0FB691
:1030D000F894DEBF0FBECDBFDF91CF911F910F914E
:1030E000FF90EF90DF90CF90BF90AF909F908F9028
:1030F0007F906F905F904F903F902F9008956F92C8
:103100007F928F929F92AF92BF92CF92DF92EF9277
:10311000FF920F931F93CF93DF93EB018C015B0121
:103120008CE0A80EB11C89E9682E96E7792E26E975
:10313000822E3EE7932EC990D990E990F99020E035
:1031400030E0A901C701B6010E9408388823B9F010
:10315000A7019601F80160817181828193810E94AB
:103160000F386B017C01E894F7F8A7019601B301D1
:10317000C4010E94083887FD02C0360147010C5F78
:103180001F4FCA15DB05B9F6B301C401DF91CF911A
:103190001F910F91FF90EF90DF90CF90BF90AF9075
:1031A0009F908F907F906F9008954F925F926F9253
:1031B0007F92AF92BF92CF92DF92EF92FF920F93E6
:1031C0001F93CF93DF93EC018C015C018CE0A80E80
:1031D000B11CC12CD12C7601F80141905190619025
:1031E00071908F0120E030E0A901C301B2010E947B
:1031F0000838882371F0A3019201C301B2010E9433
:10320000463A9B01AC01C701B6010E942F376B0102
:103210007C010A151B0501F7C701B6010E94D33ACC
:103220002B013C019B01AC0160E070E080E89FE372
:103230000E940F386B017C019B01AC016881798190
:103240008A819B810E94463A688379838A839B8323
:10325000A70196016C817D818E819F810E94463AF3
:103260006C837D838E839F83A70196016885798512
:103270008A859B850E94463A688779878A879B87DB
:10328000C301B201DF91CF911F910F91FF90EF9099
:10329000DF90CF90BF90AF907F906F905F904F90F6
:1032A0000895CF93DF93CEE8D6E08991882319F073
:1032B0000E943602FACFDF91CF910895CF93DF932A
:1032C00021E5829FC0011124EC01DD5F40E550E063
:1032D000BE018EE896E00E94E736892B69F41092D1
:1032E0008E060E94590440E550E06EE876E0CE017B
:1032F0000E94A73680E001C081E0DF91CF91089560
:103300002FB7F8949091F006892B8093F0062FBF89
:1033100008952FB7F8949091DE06892B8093DE06EE
:103320002FBF08959FB7F89480930B079FBF089510
:103330002FB7F8949091F106809589238093F10638
:103340002FBF08952FB7F8949091F106892B8093A1
:10335000F1062FBF0895AF92BF92CF92DF92EF9206
:10336000FF920F931F93CF93DF93EC0100E317E0DD
:103370005C018CE0A80EB11CC990D990E990F9903D
:1033800020E030E0A901C701B6010E940B3A1816EF
:103390008CF0F80121913191419151918F01C70138
:1033A000B6010E94083887FD05C0CA15DB0521F764
:1033B00080E001C081E0DF91CF911F910F91FF90DC
:1033C000EF90DF90CF90BF90AF900895AF92BF92F3
:1033D000CF92DF92EF92FF920F931F93CF93DF93E1
:1033E00000D000D0CDB7DEB75B012CE0E22E27E0A5
:1033F000F22E8C016B018CE0C80ED11CF50161919D
:103400007191819191915F01F701219131914191E8
:1034100051917F0129833A834B835C830E94AA38B0
:1034200029813A814B815C810E940F38F8016193B8
:103430007193819391938F01AC14BD04F9F60F90B1
:103440000F900F900F90DF91CF911F910F91FF90F0
:10345000EF90DF90CF90BF90AF9008950E945904F5
:103460001092EB06089596B1892F877049F0892F45
:103470008095817091FF826092FD03C08460089501
:1034800080E008951F920F920FB60F9211242F9390
:103490003F934F935F936F937F938F939F93AF93DC
:1034A000BF93EF93FF930E94331A882391F080FF1C
:1034B00003C00E94DD040DC082FF04C08091F106AC
:1034C000826005C081FF05C08091F106886080930D
:1034D000F106FF91EF91BF91AF919F918F917F91F5
:1034E0006F915F914F913F912F910F900FBE0F9071
:1034F0001F90189587B1887F87B988B1876088B990
:10350000ECE6F0E0808187608083E8E6F0E080818F
:103510008260808308951092F0019091510797FD89
:1035200003C090E29093F001882331F09091F00174
:1035300080E289278093F00108953D98459A80E0C4
:103540000C948B1A8F929F92AF92BF92CF92DF9280
:10355000EF92FF920F931F93CF93DF93CDB7DEB718
:103560002D970FB6F894DEBF0FBECDBF6B017C0167
:10357000042F20E030E0A9010E94083887FF07C02F
:103580008DE20E943602F7FAF094F7F8F094102FCB
:10359000123060F020E030E048EC52E4C701B601A0
:1035A0000E94463A6B017C011250F2CF00FF0AC024
:1035B00020E030E040E251E4C701B6010E94463A03
:1035C0006B017C0120E030E040E05FE3C701B60121
:1035D0000E942F370E94773810E03AE0832E912C1A
:1035E000A12CB12C611571058105910591F0EE2496
:1035F000E394F12CEC0EFD1EE10EF11CA5019401EB
:103600000E945E3B605DF7016083B901CA011F5FE4
:10361000E9CF80E3101748F4E1E0F0E0EC0FFD1F84
:10362000E10FF11D80831F5FF5CF101314C011E06F
:10363000100F80E3FE01E00FF11D81830CC0101319
:1036400003C08EE20E943602FE01E10FF11D80816F
:103650000E94360211501111F2CF2D960FB6F89438
:10366000DEBF0FBECDBFDF91CF911F910F91FF90B5
:10367000EF90DF90CF90BF90AF909F908F90089584
:103680002091510720FF08C02BE832E441E25DE3BE
:103690000E94463A41E001C040E00C94A21A2091F9
:1036A000510720FF08C02BE832E441E25DE30E94AD
:1036B000463A44E001C043E00C94A21ACF93DF9352
:1036C000EC01688179818A819B810E944F1B8CE289
:1036D0000E9436026C817D818E819F810E944F1BEA
:1036E0008CE20E943602688579858A859B85DF9108
:1036F000CF910C944F1BCF93DF93843630F06AE068
:103700000E943E3BC0E3C90F03C0C0E08A3030F0E6
:103710006AE00E943E3BD0E3D90F01C0D0E0805D5B
:103720000E943602DD2319F08D2F0E943602CC2331
:1037300029F08C2FDF91CF910C943602DF91CF913D
:103740000895CF93DF93FC018491EF0121968823A4
:1037500021F00E943602FE01F7CFDF91CF9108954C
:103760008FE892E00C94A11B8CE892E00C94A11BD2
:10377000CF93C82F82EB92E00E94A11B8C2F0E9456
:103780007B1BCF910C94B41B811104C089EB92E098
:103790000C94A11B0C94B81BCF93DF93C0E08C2F2B
:1037A0000E945E1981110EC010928E068EE30E9457
:1037B00036020E9451198AE30E94360287E00E9475
:1037C000B81B12C080918E06882371F00E94C50A32
:1037D000D82F8EE30E9436020E9451198AE30E947C
:1037E00036028D2F0E94C41BC13011F0C1E0D7CF2B
:1037F000DF91CF910895CF92DF92EF92FF921F93C6
:10380000CF93DF931F92CDB7DEB7182F6A017B01EC
:1038100084E229830E943602812F0E947B1B8DE364
:103820000E9436022981422FC701B6010E94A21AC6
:103830000F90DF91CF911F91FF90EF90DF90CF908D
:103840000C94B41B1F93CF93DF931F92CDB7DEB7B9
:10385000182F84E269830E943602812F0E947B1B0D
:103860008DE30E9436026981862F0E947B1B0F9098
:10387000DF91CF911F910C94B41BEF92FF920F93A5
:103880001F93CF93DF9360913C0770E080E00E942C
:10389000221C60913F0770E081E00E94221C609131
:1038A0003D0770E082E00E94221C60913E0770E0BC
:1038B00083E00E94221C6091510762FB662760F939
:1038C00070E084E00E94221C6091510766FB66272D
:1038D00060F970E085E00E94221C809151079927D1
:1038E00087FD9095692F661F6627661F70E086E04A
:1038F0000E94221C6091400770E08AE00E94221C16
:1039000040914107509142076091430770914407ED
:1039100023E08BE00E94FB1B409145075091460736
:10392000609147077091480723E08CE00E94FB1BE1
:1039300060915107617070E08DE00E94221C6091DF
:10394000510765FB662760F970E084E10E94221C44
:103950006091510763FB662760F970E085E10E9482
:10396000221C609151076295617070E086E10E94AF
:10397000221C6091520770E087E10E94221C409156
:10398000530750915407609155077091560723E0F3
:1039900088E10E94FB1B40915707509158076091A6
:1039A000590770915A0723E089E10E94FB1B60913F
:1039B0005B0770915C078AE10E94221C40915D07C1
:1039C00050915E0760915F077091600723E08BE183
:1039D0000E94FB1B4091490750914A0760914B0799
:1039E00070914C0720E08EE10E94FB1B40914D0737
:1039F00050914E0760914F077091500720E08FE182
:103A00000E94FB1B609151076695617070E080E237
:103A10000E94221CD4E6F12C0CE017E083E0E82E93
:103A2000ED0ECD2F82E0F81691F0E3E0FE16E9F0FE
:103A3000F1E0FF1631F0F80140815181628173811C
:103A40001AC0F801448555856685778514C020E045
:103A500030E041E655E4F801608D718D828D938DE3
:103A60000E940F38AB01BC0106C0F80144A155A16A
:103A700066A177A1705823E08C2F0E94FB1B0C5F7E
:103A80001F4FCF5FCE11CECFD65FF394DC3821F637
:103A9000DF91CF911F910F91FF90EF9008958DE5E9
:103AA0000E9436020C94B41BCF93DF93CDB7DEB7E0
:103AB0002C970FB6F894DEBF0FBECDBF8CEA92E014
:103AC0000E94A11B63EF76E0CE0101960E94E619E9
:103AD000CE0101960E945E1B8AE30E94360280910D
:103AE000E4060E947B1B0E944F1D2C960FB6F89493
:103AF000DEBF0FBECDBFDF91CF9108951F920F9211
:103B00000FB60F9211242F933F934F935F936F93B0
:103B10007F938F939F93AF93BF93EF93FF93809186
:103B2000DF06813049F080910B07811105C00E94AA
:103B3000DD0481E00E949219FF91EF91BF91AF9156
:103B40009F918F917F916F915F914F913F912F91B5
:103B50000F900FBE0F901F90189593B196718091A2
:103B6000510786FD02C086E19827992349F091FB11
:103B7000882780F992FD8260907119F08460089521
:103B800080E00895EBE6F0E08081897E8083E8E6BE
:103B9000F0E080818E7F8083089584B1897E84B92E
:103BA00085B1866185B98091510783FF0BC08091F3
:103BB0006B00866180936B008091680081608093C8
:103BC000680008950C94C21D0F931F93CF93C42FC8
:103BD00020E030E040EA51E40E94463A0E94F53786
:103BE0000E947C388B0101151105D9F08091E00607
:103BF000811117C0C11103C00E944D0306C00E946D
:103C000061268091E10681FD0CC02FEF80E792E0F4
:103C1000215080409040E1F700C0000001501109A0
:103C2000E2CFCF911F910F910895EFE8F5E0AFEF4C
:103C3000B6E04D915D916D917C91139740835183D6
:103C40006283738314964D915D916D917C9117976A
:103C5000448355836683778318968D919D910D904B
:103C6000BC91A02D80879187A287B3870895BF92CA
:103C7000CF92DF92EF92FF920F931F93CF93DF9338
:103C80007C01FC0102A513A5D4A5C5A5818980FFEF
:103C900018C06091E70670E080E090E00E94AA38CA
:103CA0002AE037ED43E25CE30E94463A9B01AC0117
:103CB000B8018D2F9C2F0E94463A8B01D82FC92F17
:103CC0002DC082FD17C06091E60670E080E090E0B4
:103CD0000E94AA382AE037ED43E25CE30E94463AAC
:103CE0009B01AC01B8018D2F9C2F0E94463A8B019D
:103CF000D82FC92FF701B6A0C7A0D0A4F1A42B2DAF
:103D00003C2D4D2D5F2DB8018D2F9C2F0E940B3A1D
:103D1000181624F40B2D1C2DDD2DCF2D20E030E0C6
:103D200040E85FE3B8018D2F9C2F0E940B3A1816D4
:103D300024F000E010E0D0E8CFE3B8018D2F9C2FF5
:103D4000DF91CF911F910F91FF90EF90DF90CF9077
:103D5000BF9008952F923F924F925F926F927F9201
:103D60008F929F92AF92BF92CF92DF92EF92FF928B
:103D70000F931F93CF93DF93CDB7DEB7CA54D1090A
:103D80000FB6F894DEBF0FBECDBF4B01A0908E05DD
:103D90002A2C312C22E3229DA001239D500D1124B9
:103DA000BA0162597D4F7AAF69AFFB0111922A9532
:103DB000E9F7F4012085FB01218BF4014481558151
:103DC00066817781E9ADFAAD46A757A760AB71ABC5
:103DD00021FF42C02CE0EFEFF6E0DE0159960190A2
:103DE0000D922A95E1F78BAB9CAB2CE037E0219646
:103DF0003FAF2EAF2197BE016B5D7F4F7EAF6DAFA2
:103E0000CE01499698AF8FABFE013D96FCAFEBAF6C
:103E100062E3A69E9001112427963FAF2EAF27970D
:103E2000FEABEDAB00E010E0B12C82E3829D90018F
:103E3000839D300D1124C90182599D4FFC013C9690
:103E40002396FFAFEEAF23979C01205F3F4F25964F
:103E50003FAF2EAF259743C02CE0EFE8F5E0BDCF94
:103E60002796EEADFFAD2797E00FF11FE259FD4F0A
:103E7000C082D182E282F3822396EEADFFAD23971A
:103E80002081318142815381C216D306E406F506B2
:103E900010F469017A012396EEADFFAD2397C0823D
:103EA000D182E282F3820E94AA38A30192010E9489
:103EB0000F38EDA9FEA96193719381939193FEABA5
:103EC000EDAB20E030E0A9010E94083887FD41C039
:103ED000B3940C5F1F4F0C30110509F44CC0EBA9D3
:103EE000FCA96191719181919191FCABEBAB219611
:103EF000EEADFFAD21974190519061907190219668
:103F0000FFAFEEAF2197A30192010E94463A0E94B3
:103F1000163AEDADFEAD6193719381939193FEAF2F
:103F2000EDAFEFA9F8ADC190D190E190F190F8AF6D
:103F3000EFAB6C197D098E099F096B017C0197FF1E
:103F40008FCFCC24DD247601C61AD70AE80AF90AF5
:103F500087CFBB2029F0F1E0BF1621F090E803C025
:103F600090E201C090E42596EEADFFAD25978081EB
:103F7000892B8083ADCFCD28CE28CF2809F4A3C1CB
:103F8000CE010D960E94D5189B01AC0182E3829D63
:103F90008001839D100D112402591D4FF801268FB9
:103FA000378F40A351A3BE01635F7F4F84E297E048
:103FB00028962FAF289729963FAF29972A964FAF7B
:103FC0002A972B965FAF2B970E947F18F801628F7C
:103FD000738F848F958FBE01635F7F4F88E197E079
:103FE0000E947F18F80166A377A380A791A7F188A4
:103FF00028962FAD289729963FAD29972A964FAD41
:104000002A972B965FAD2B97F0FC09C0F4016081D5
:10401000718182819381F3FC0E94463AF80162A784
:1040200073A784A795A780916D02A81611F0F1FEE1
:104030000DC082E3829DF001839DF00D1124E259B1
:10404000FD4F128A138A148A158A54C02BE935E071
:104050003CAB2BAB8E010F5F1F4FBE01675E7F4FE6
:104060007AAB69ABC12CD12C76010DAB1FABEBA9A0
:10407000FCA981909190A190B190FCABEBABEBAD22
:10408000FCAD4190519061907190FCAFEBAFA301FA
:104090009201C501B4010E94463A9B01AC01C701DF
:1040A000B6010E942E376B017C01A5019401C3016A
:1040B000B2010E942E37F80161937193819391931D
:1040C0008F012BAD3CAD69A97AA92617370779F680
:1040D0002FEE3FEF4FE75FE3C701B6010E940B3AB7
:1040E00018166CF482E3829DF001839DF00D11247B
:1040F000E259FD4F12A213A214A215A271C02FEE15
:104100003FEF4FE75FEBC701B6010E94083887FF1A
:1041100011C082E3829DF001839DF00D1124E259CC
:10412000FD4F89E996E7A6E9BEE782A393A3A4A37E
:10413000B5A356C08DA99FA90E94D5186DA97FA9C6
:1041400084E297E00E947F184B015C01A701960171
:1041500060E070E080E89FE30E942E3720E030E0CE
:1041600040E05FE30E94463A0E94D33A6B017C0133
:1041700020914107309142074091430750914407F5
:10418000C501B4010E94463AA70196010E94463A31
:104190004B015C01A701960160E070E080E89FE3BD
:1041A0000E942E379B01AC01C501B4010E940F385B
:1041B0006B017C0120E030E0A9010E94083887FFF4
:1041C00003C0C12CD12C760182E3829DF001839D36
:1041D000F00D1124E259FD4FC2A2D3A2E4A2F5A230
:1041E00082E3829D8001839D100D112402591D4F91
:1041F000F801818981FD69C089AD9AAD0E94371EA1
:104200006B017C018090A7059090A805A090A9055E
:10421000B090AA05A50194010E940B3A18162CF43F
:10422000A5019401C501B40104C0A7019601C7010D
:10423000B6010E94463AF801668B778B808F918F8A
:1042400082E3829D8001839D100D112402591D4F30
:10425000F80182A093A0A4A0B5A0A501940166894D
:104260007789808D918D0E940B3A18162CF4F801F5
:10427000868A978AA08EB18EC092A705D092A80593
:10428000E092A905F092AA058CE0FE013D96ABE90B
:10429000B5E001900D928A95E1F78CE0FE01B596AC
:1042A000AFE8B5E001900D928A95E1F780916C023C
:1042B00080938E058F5F803109F480E080936C02DB
:1042C0000E942C3402C080E001C081E0C65BDF4F59
:1042D0000FB6F894DEBF0FBECDBFDF91CF911F9117
:1042E0000F91FF90EF90DF90CF90BF90AF909F9095
:1042F0008F907F906F905F904F903F902F90089598
:1043000080916D0290918E05981739F022E3829F7B
:10431000C001112482599D4F089580E090E00895D6
:104320008CE1EFE8F5E0DF011D928A95E9F7109244
:104330006D0210928E0581E080936C0210926B02E8
:1043400008952F923F924F925F926F927F928F9239
:104350009F92AF92BF92CF92DF92EF92FF920F9314
:104360001F93CF93DF93CDB7DEB7A1970FB6F89425
:10437000DEBF0FBECDBF9091E0069111C3C18D8FFE
:104380003E012DE0620E711C89E0D3011D928A95D9
:10439000E9F786E08D8B20E3A22E27E0B22EFE0106
:1043A00076964F0100E010E0C12CD12C76013D8DB6
:1043B000232F30E03C8F2B8F902F0115110521F01A
:1043C000013021F080E103C084E001C088E0D40125
:1043D0008D934D01EB8DFC8D02C0F595E7959A9577
:1043E000E2F7E0FF17C020E030E040EC5FEBD501E2
:1043F0006D917D918D919C910E94463A1B012C01FB
:104400009B01AC01C701B6010E940B3A181614F0CB
:10441000610172010F5F1F4FB4E0AB0EB11C03309E
:10442000110551F6209057073090580740905907D2
:1044300050905A0794E0A92EBB24B3946FEF76E016
:10444000CE0101960E94E61980915207882E912C88
:10445000FE0131962FEF36E03A8F298F890120E057
:1044600030E060E070E0D701C601B0588E8F9F8FBA
:10447000A8A3B9A34B8D5C8D022E02C0559547951C
:104480000A94E2F740FF2BC06F5FD8011D921D9286
:104490001D921C921397A401022E02C055954795B8
:1044A0000A94E2F740FF03C0BB2019F007C0BB200D
:1044B00029F0C082D182E282F38208C08E8D9F8D66
:1044C000A8A1B9A180839183A283B38346E150E080
:1044D0004C0F5D1F420F531FDA014C91742B2F5F5D
:1044E0003F4F34960C5F1F4F2330310519F6172FBD
:1044F00070E080E090E00E94A8380E94D33A9B01CF
:10450000AC011093E506C201B1010E94463A6D87E5
:104510007E878F87988BB301CE0101960E94AA1ED9
:10452000B4E0B093E3060E941D2C0E944926BB20F4
:10453000E9F00E94AD1DFE01769620E030E090E0AB
:104540006191462F412359F0AC01022E02C05595CE
:1045500047950A94E2F740FF02C0609516232F5F4B
:104560003F4F2330310561F71093E5060E941D2C63
:104570008091F106847339F11091F10614FF03C0A4
:1045800086E00E94921915FF03C087E00E949219ED
:10459000B11007C00E94AD1DED8D8E2339F088E06B
:1045A00003C012FF03C089E00E94921980910B079B
:1045B000882329F00E94DD040E944D03A3C084E0FB
:1045C0000E94981904C0812F8C7109F0B0CF0E940D
:1045D000993500915B0710915C070115110549F0B1
:1045E0008FE99FE00197F1F700C000000150110929
:1045F000F4CF91E0B926C9F020E030E040EA50E481
:1046000060915D0770915E0780915F0790916007F0
:104610000E94463A6B017C0120905307309054076A
:10462000409055075090560710C0C0905D07D0903D
:104630005E07E0905F07F09060072090570730908A
:1046400058074090590750905A07AA94A110F6CEE7
:10465000C0905207D12C80905D0790905E07A0908B
:104660005F07B09060072401350177FA709477F8FE
:1046700070948CE0E82E87E0F82E8B8D9C8D002EB8
:1046800002C0959587950A94E2F780FF2AC0C6017B
:10469000002E02C0959587950A94E2F7D70180FF16
:1046A00010C094962D913D914D915C919797C501C5
:1046B000B4010E942F37F70120813181428153815B
:1046C00006C02D913D914D915C91C301B2010E94B4
:1046D000463A0E94163AE98DFA8D6083718382838F
:1046E00093830F5F1F4F298D3A8D2C5F3F4F3A8F79
:1046F000298F34E0E30EF11C0330110509F0BDCF22
:104700001092E306A1960FB6F894DEBF0FBECDBFA0
:10471000DF91CF911F910F91FF90EF90DF90CF909D
:10472000BF90AF909F908F907F906F905F904F90D1
:104730003F902F90089580913D07682F90E0209141
:104740003E07422F80FD94E0822F817020FD80E2A1
:1047500061FD986041FD806462FD906142FD80686A
:104760009093AD058093AE0508951F920F920FB6FA
:104770000F9211248F939F938BB19091AD059C71F3
:10478000837E892B8BB915BC9F918F910F900FBEA3
:104790000F901F90189580916F008D7F80936F0010
:1047A00080918100887F8160809381001092AF05A5
:1047B00080913F079091DF068F3F39F420910B07DE
:1047C000211103C0903881F402C0943069F090E068
:1047D000009741F0EFE9FFE03197F1F700C00000EA
:1047E0000197F6CF81E001C080E09091510792FFE0
:1047F00002C091E08927882311F0289A089528980B
:1048000008951F920F920FB60F9211242F933F938A
:104810004F935F936F937F938F939F93AF93BF93C8
:10482000EF93FF938091AF05811122C28BB19091DC
:10483000BF05907E8F71892B8BB98BB1837E909150
:10484000BE05892B8BB98091BD0586BD82E085BDF3
:1048500081E08093AF0578948091D1059091D20545
:10486000892B09F0BFC08091D3059091FE05981760
:1048700009F4A4C0E091D3052E2F30E087E0E89F33
:10488000F0011124EC52FA4FF093D205E093D105D8
:1048900082819381909389008093880080819181A7
:1048A0009093CD058093CC05E4818091CE058E1741
:1048B00061F1E093CE0582E1E89FF0011124E1501F
:1048C000FA4FF093D005E093CF0584859585A685B2
:1048D000B785B695A795979587958093B8059093DA
:1048E000B905A093BA05B093BB058093B405909326
:1048F000B505A093B605B093B7058093B005909326
:10490000B105A093B205B093B305A091CF05B091C6
:10491000D0059091AE0550968C9150978927809341
:10492000BF0587E0829FF001839FF00D1124EC52B8
:10493000FA4F25814D915D916D917C911397022ED7
:1049400004C076956795579547950A94D2F740939A
:10495000C0055093C1056093C2057093C3051496BA
:104960004D915D916D917C911797022E04C07695C3
:104970006795579547950A94D2F74093C40550938D
:10498000C5056093C6057093C70518968D919D91D6
:104990000D90BC91A02D04C0B695A79597958795CD
:1049A0002A95D2F78093C8059093C905A093CA05AC
:1049B000B093CB0586810E94140314C00E94CB23C0
:1049C000E091CF05F091D0058189882339F01092CC
:1049D000B3008091B0008F778093B00084E00E9494
:1049E000A21946C18091F2068130B1F486B180727D
:1049F0009091F001891781F01092F2068CE0EFEFB0
:104A0000F6E0A3EFB6E001900D928A95E1F7809170
:104A1000F10680648093F1061092BE054091C005B6
:104A20005091C1056091C2057091C3058091B00598
:104A30009091B105A091B205B091B305840F951F77
:104A4000A61FB71F8093B0059093B105A093B20540
:104A5000B093B305E091CF05F091D005448555851D
:104A600066857785481759076A077B0768F524E04C
:104A70002093BE054485558566857785841B950BF7
:104A8000A60BB70B8093B0059093B105A093B20528
:104A9000B093B30520898091FF0690910007A09103
:104AA0000107B091020725FF04C00197A109B109D0
:104AB00003C00196A11DB11D8093FF0690930007CE
:104AC000A0930107B09302074091C4055091C5051A
:104AD0006091C6057091C7058091B4059091B505A8
:104AE000A091B605B091B705840F951FA61FB71FFB
:104AF0008093B4059093B505A093B605B093B70520
:104B00004485558566857785481759076A077B0769
:104B100078F52091BE0528602093BE054485558513
:104B200066857785841B950BA60BB70B8093B40520
:104B30009093B505A093B605B093B70520898091F1
:104B4000030790910407A0910507B091060726FF7F
:104B500004C00197A109B10903C00196A11DB11DAF
:104B60008093030790930407A0930507B09306076B
:104B70004091C8055091C9056091CA057091CB0557
:104B80008091B8059091B905A091BA05B091BB0587
:104B9000840F951FA61FB71F8093B8059093B90582
:104BA000A093BA05B093BB05448555856685778586
:104BB000481759076A077B0778F52091BE052061E1
:104BC0002093BE054485558566857785841B950BA6
:104BD000A60BB70B8093B8059093B905A093BA05BF
:104BE000B093BB0520898091070790910807A09199
:104BF0000907B0910A0727FF04C00197A109B1096D
:104C000003C00196A11DB11D80930707909308076B
:104C1000A0930907B0930A078091DF06843039F426
:104C20009091E5068091BE0589238093BE05809111
:104C3000CC059091CD0501979093CD058093CC053F
:104C4000892B69F41092D2051092D1058091D30579
:104C50008F5F8093D305863011F41092D305909125
:104C6000AD058091BE0589278093BE051092AF05E2
:104C7000FF91EF91BF91AF919F918F917F916F9134
:104C80005F914F913F912F910F900FBE0F901F900A
:104C900018958091510782FF02C0289A01C0289878
:104CA0008091AD058093BE0580913C07880F8450AC
:104CB00081958093BD0580916F00826080936F0025
:104CC00008953F924F925F926F927F928F929F9240
:104CD000AF92BF92CF92DF92EF92FF920F931F930A
:104CE000CF93DF93CDB7DEB7A4970FB6F894DEBFAE
:104CF0000FBECDBF10910B07112391F181E080937E
:104D0000DF068EEB92E00E94A11B812F0E947B1B8D
:104D10000E94B41B85EF91E0019739F0EFE9FFE0C5
:104D20003197F1F700C00000F7CF1150123030F08A
:104D30008FB7F89410920B078FBF12C086E892E0ED
:104D40000E94A11B84E792E00E94A11B0E944F1DBC
:104D500080E10E9498198091F10684FFFCCFE8CF92
:104D60001091F106112309F4BEC214FF04C081E0C2
:104D70008093E006BBC310FFC0C18CE0EFEFF6E00C
:104D8000DE01599601900D928A95E1F7BE01675EAA
:104D90007F4FCE010D960E94E6198CE30E943602E9
:104DA0008091DF068830E1F058F4813099F1A8F065
:104DB000823099F1843009F043C089E093E03EC02D
:104DC000803229F118F4803171F03AC0803441F119
:104DD0008038B1F581EF92E031C08CE193E02EC0D4
:104DE00088E193E02BC08091E10687FD10C082E14D
:104DF00093E00E94A11B8091E10680FF06C080E342
:104E00001AC082FF17C085FFFACF81E314C08EE07D
:104E100093E014C083E093E011C08DEF92E00EC0E8
:104E200087EF92E00E94A11B8091E10683FFE9CF0A
:104E300083E301C082E30E94360202C00E94A11BEC
:104E400080914007F82FF170BF2E80FD15C0409073
:104E50002D0250902E0260902F027090300245E19A
:104E6000842E42E0942E9E012F5F3F4F7901CE01A8
:104E70000D966C0100E02CC08091EB06882339F37D
:104E80008AEE92E03FC0A30192010E942F37F70102
:104E90006083718382839383B110F2CFF701208105
:104EA000318142815381F6016081718182819381D8
:104EB0000E942E37F60160837183828393830F5F94
:104EC000F4E0EF0EF11C24E0C20ED11C0330B1F06F
:104ED000F40161917191819191914F01208531850A
:104EE000428553850E942F37F70160837183828347
:104EF0009383023041F2BB2089F2E1CFB110C0CFE1
:104F000083EE92E00E94A11BCE010D960E945E1BD3
:104F10008091400781FF1FC08EED92E00E94A11B8F
:104F200090918E0580916D02981710F0815F01C0FD
:104F30008150891B0E947B1B8CE20E94360280916B
:104F4000AC059091AB05981710F0805801C08150C6
:104F5000891B0E947B1B89ED92E00E94A11B80911E
:104F6000DF068C7749F06091700670917106809130
:104F700072069091730603C060E070E0CB010E945E
:104F8000401B8CE20E9436026091EC067091ED06A7
:104F90008091EE069091EF0640E00E94A21A0E94D6
:104FA000AD1DF82E0E94331A082F86B1982F9072EB
:104FB0008091F001E92EE8268F2D802B8E2959F162
:104FC00084ED92E00E94A11BEE2019F080E50E9482
:104FD0003602FF2079F0F0FE03C088E50E94360219
:104FE000F1FE03C089E50E943602F2FE03C08AE5A5
:104FF0000E943602002379F000FF03C082E50E9480
:10500000360201FF03C088E40E94360202FF03C09B
:1050100083E50E9436028091EB06882321F08150BF
:105020008093EB0618C08091DF068C7711F08DE13C
:1050300001C089E08093EB068091EA06811103C0EC
:1050400081E08093EA068EEC92E00E94A11BCE01E3
:1050500001960E945E1B0091EA06002321F0015098
:105060000093EA0642C08091DF068C7711F083E15D
:1050700001C089E08093EA0689EC92E00E94A11BBE
:105080008091E6060E947B1B8CE20E943602809192
:10509000E7060E947B1B8CE20E9436028091E806A4
:1050A0000E947B1B8091B00087FF05C02D9902C034
:1050B00001E001C002E0439B03C0FF24F39403C05E
:1050C000002399F0F12C85EC92E00E94A11B0023B3
:1050D00039F0013011F483E501C083E40E94360207
:1050E000FF2019F086E40E9436028EE30E94360209
:1050F0000E94B41B81E00E949819812F887E09F4D8
:1051000069C08091DF06982F937009F052C08872B1
:10511000A1F08091E106807C81F40E94083482E055
:105120008093E3068091DF06803239F417FD05C0D5
:105130008091E10680688093E1068091DF0681110D
:1051400003C091E09093E10616FF07C085FD05C0FE
:105150009091E10690649093E10613FF05C0807E74
:1051600019F480E18093DF0615FF23C086E892E002
:105170000E94A11B82E392E00E94A11B0E944F1D8E
:105180008091E10687FD10C09091DF06903439F4DC
:1051900083FF07C0837E82608093E10602C090385F
:1051A00019F080E48093DF068091E10680628093AD
:1051B000E10617FF0CC08091DF06813029F4809151
:1051C000E10685608093E10680E88093DF0688EE43
:1051D0000E94981911FF44C0812F8876F1F58091C3
:1051E000DF06803471F48091E10685FD0AC084FFFA
:1051F00003C01092DF0605C082FF03C08860809361
:10520000E1068091DF06882381F084FF26C090911B
:10521000E10690FF22C0803141F48091E9068823A5
:1052200021F088608093E90618C01092E3060E947E
:105230008021892B71F08091E10686FD0AC01092D1
:10524000E10688E08093DF060E941D2C0E9449261B
:1052500004C01092E1061092DF0682E00E949819C5
:1052600012FF41C08091DF06807D9091E106882386
:10527000D9F08091E206811117C097FD15C00E94F8
:10528000083480916D0280936B020E942C348091CF
:10529000E30681FF05C09091E10691609093E106DD
:1052A000897F8093E3061CC097FF0AC01092E30633
:1052B0000E9490210E9499350E94C5040E94151EEB
:1052C0008091E10685FF08C08F7781608093E106B9
:1052D00080E48093DF0604C01092E1061092DF069E
:1052E00084E00E9498199091DE06992309F4ABC0DE
:1052F0008FB7F8941092DE068FBF4091E60690FFBC
:1053000002C084E601C0842F91FD865F92FD8A5021
:1053100093FD8F5F94FD8150893C08F088EC8A30C2
:1053200008F48AE03091E70695FF02C024E601C048
:10533000232F96FD22E397FD29E1841303C0231751
:1053400009F481C08093E6062093E7061092EA06EE
:1053500010916D0230908E0589E9D82E96E7E92EDE
:1053600026E9F22E0EE732E3432E131509F457C057
:10537000812E912C489CC001499C900D1124FC0168
:10538000E259FD4F5F01CF010E94371E562E672E56
:10539000782EC92E2D2D3E2D4F2D502F0E940B3AC9
:1053A00018164CF42D2D3E2D4F2D502F6D2D7E2D8A
:1053B0008F2D902F08C0252D362D472D5C2D652D66
:1053C000762D872D9C2D0E94463AF501668B778BB2
:1053D000808F918F489CC001499C900D11249C01A5
:1053E00022593D4F7901F90182A093A0A4A0B5A054
:1053F000A501940166897789808D918D0E940B3A71
:1054000018162CF4F701868A978AA08EB18E1F5F3A
:10541000103109F410E0D52C73010C2DA6CF8D2D81
:105420009E2DAF2DB02F8093A7059093A805A09334
:10543000A905B093AA050E94083480916D0280935B
:105440006B020E942C349091F006992309F448C015
:105450008FB7F8941092F0068FBF2091E80690FF66
:1054600002C084E601C0822F91FD865F92FD8A50C2
:1054700093FD8F5F94FD8150893C08F088EC8A3061
:1054800008F48AE0821749F02091E306286020930F
:10549000E3068093E8061092EA068091DF0695FF06
:1054A0000DC0803159F42091E906211102C022E09B
:1054B00003C020FF03C024602093E906907C81F0A4
:1054C000882311F0887161F01091F90116FF02C074
:1054D0001F7B01C01064812F0E9462021093F901AA
:1054E0008091DF068C7F11F00E941D2CA4960FB6D0
:1054F000F894DEBF0FBECDBFDF91CF911F910F910A
:10550000FF90EF90DF90CF90BF90AF909F908F90E3
:105510007F906F905F904F903F9008956AE080E099
:1055200090E00E94853645E550E06CE077E081E050
:1055300090E00C94A736CF93DF9300D01F92CDB7A5
:10554000DEB76A837B8389830E94590489812DE0B9
:10555000829FC00111244CE050E06A817B819E5FF4
:105560000F900F900F90DF91CF910C94A7361F935F
:10557000CF93DF93182FEB018DE0189FB00111241A
:105580007E5F4CE050E0CE010E94E736892B59F453
:105590008CE0FE0111928A95E9F7BE01812F0E94ED
:1055A0009B2A80E001C081E0DF91CF911F91089597
:1055B000EF92FF920F931F93CF93DF93CDB7DEB798
:1055C0002C970FB6F894DEBF0FBECDBF182F80FF0B
:1055D000DAC08AE080933C0789E180933F0710920C
:1055E0003D0785E080933E0781E0809340078AE095
:1055F00097EDA3E2BCE38093410790934207A09309
:105600004307B09344078FE692E1A3E0BBE38093A6
:10561000450790934607A0934707B093480780E05B
:1056200090E0AAE7B4E48093490790934A07A093D7
:105630004B07B0934C0710924D0710924E071092F3
:105640004F07109250071092520780E090E0A8ECAC
:10565000B1E48093530790935407A0935507B093F8
:10566000560780E090E0AAEFB3E480935707909349
:105670005807A0935907B0935A078AEF90E0909388
:105680005C0780935B0780E090E0A0E8BFE3809335
:105690005D0790935E07A0935F07B0936007109239
:1056A000510740E050E068E474E440930C075093E5
:1056B0000D0760930E0770930F07409310075093E8
:1056C00011076093120770931307409314075093C8
:1056D00015076093160770931707409318075093A8
:1056E000190760931A0770931B0740931C07509388
:1056F0001D0760931E0770931F0780E090E0A6E1EE
:10570000B4E48093200790932107A0932207B093DD
:10571000230780E090EAACE0B7E4809324079093FD
:105720002507A0932607B093270780932807909317
:105730002907A0932A07B0932B0780932C079093F7
:105740002D07A0932E07B0932F0780E090E0A8E4E8
:10575000B3EC8093300790933107A0933207B09356
:1057600033078093340790933507A0933607B0939F
:1057700037078093380790933907A0933A07B0937F
:105780003B070E948E2A11FF10C0CE0101967C01BA
:105790008CE0F70111928A95E9F700E0B701802FBC
:1057A0000E949B2A0F5F0830C9F712FF14C060E007
:1057B00080E093E00E94853660E081E093E00E9403
:1057C000853660E081E593E00E94853660E082E501
:1057D00093E00E94853613FF0AC060E08EEA93E0F2
:1057E0000E94853660E08FEA93E00E9485362C9611
:1057F0000FB6F894DEBF0FBECDBFDF91CF911F91E2
:105800000F91FF90EF90089580E090E00E947D3628
:105810008A3051F445E550E061E070E08CE097E0BB
:105820000E94E736892B41F487E00E94B81B8FEF76
:105830000E94D82A0C943D1C08952F923F924F92BB
:105840005F926F927F928F929F92AF92BF92CF9210
:10585000DF92EF92FF920F931F93CF93DF93CDB719
:10586000DEB7EC970FB6F894DEBF0FBECDBF8091C8
:10587000E30680FDB4C79091D305809189069817FF
:1058800009F4ADC780918C0690918D06892B09F0A3
:105890003BC31091E30612FF09C080918E0522E3FD
:1058A000289FC001112482599D4F02C00E9480216F
:1058B00090938D0680938C0620908C0630908D06F8
:1058C0002114310409F48BC700915A06902F91706E
:1058D00000FF03C010925A06FEC0809159068F5FE8
:1058E000853009F0982F90935906E92EF12C32E17A
:1058F0003E9DF0013F9DF00D1124E150FA4FF093D1
:105900008B06E0938A06D10150968C915097808B3C
:105910004D915D916D917C91DB01CA0123E0880F6F
:10592000991FAA1FBB1F2A95D1F780839183A28359
:10593000B383D10114964D915D916D917C91179730
:10594000DB01CA0133E0880F991FAA1FBB1F3A95DC
:10595000D1F784839583A683B783D10118964D919F
:105960005D916D917C911B97DB01CA0143E0880F2B
:10597000991FAA1FBB1F4A95D1F780879187A287DD
:10598000B387D1011C964D915D916D917C911F97CC
:10599000DB01CA0153E0880F991FAA1FBB1F5A954C
:1059A000D1F784879587A687B787F10164857585C8
:1059B000868597850E94A83860935F06709360067D
:1059C0008093610690936206D1015E962D913D9180
:1059D0004D915C9191970E940F389B01AC016093AF
:1059E000630670936406809365069093660660E094
:1059F00070E080EA9FE30E940F386093670670931F
:105A000068068093690690936A0610925B0610926E
:105A10005C0610925D0610925E0611FD02C003FF47
:105A20001DC0609178067091790680917A069091F8
:105A30007B06609370067093710680937206909354
:105A400073069B01AC010E94463AF101628B738B95
:105A5000848B958B077F00935A0611C0D101529613
:105A60006D917D918D919C9155970E94D33A609351
:105A70007006709371068093720690937306B2E17C
:105A8000BE9DC001BF9D900D1124FC01E150FA4F55
:105A90007F01118A8091510781FF1DC0D10151966C
:105AA0008C91519785FF17C09A962D913D914D91FC
:105AB0005C919D9760E070E080E89FE30E940F3862
:105AC000609384067093850680938606909387067C
:105AD00021E0F701218B10926C0610926D06109256
